S019000041746D6567613132382D455350383236362E7372656336
S113000045C0000053C0000051C000004FC00000B4
S11300104DC000004BC0000049C0000047C00000B4
S113002045C0000043C0000041C000003FC00000C4
S11300303DC000003BC0000039C0000037C00000D4
S113004035C0000033C0000031C000002FC00000E4
S11300502DC000002BC0000029C0000027C00000F4
S113006025C0000023C0000021C000001FC0000004
S11300701DC000001BC0000019C0000017C0000014
S113008015C0000013C0000011C0000011241FBEE1
S1130090CFEFD0E1DEBFCDBF21E0A0E0B1E001C0F1
S11300A01D92A330B207E1F762D0B5C0A9CFAB9AD5
S11300B08FEC97E00197F1F700C00000AB988FEC4C
S11300C097E00197F1F700C000000895CF938FEFF8
S11300D084BB15BAC0E2C5BBEADFC5BBE8DF80E874
S11300E085BBE5DF15BAE3DF80EF85BBE0DF15BA3A
S11300F0DEDF80E685BBDBDFCF910895CF93C82F89
S113010085BBAA9AD4DFC295C07FC5BBAA9ACFDFAC
S1130110CF910895CF93C82F85BBAA98C8DFC29505
S1130120C07FC5BBAA98C3DFCF9108959093900078
S113013089B988E18AB98CE08093950008955F9B22
S1130140FECF8CB1809302018CB108951816190664
S11301506CF420E030E0EFECF7E03197F1F700C009
S113016000002F5F3F4F28173907A9F7089588EF3C
S113017081BBACDFCFEFC1BB83E090E0D7DFC2BB74
S113018088EE93E0E3DF12BA81E0C4DF82E0C2DFED
S1130190D6DF809102019FE9980F9A3118F48052BA
S11301A080930201C09102018C2F0C2E000C990B3C
S11301B02AD08A35910549F481E0ACDF82E0AADFD8
S11301C01092010110920001E3CFC052CE3500F726
S11301D080910001909101010E9741F481E09ADF32
S11301E082E098DF109201011092000180910201D7
S11301F085DF8091000190910101019690930101A6
S113020080930001C5CF9111089581568A5108F455
S10D0210805285580895F894FFCF3A
S9030000FC
