S00B00006C63642E73726563E6
S113000045C0000053C0000051C000004FC00000B4
S11300104DC000004BC0000049C0000047C00000B4
S113002045C00000DCC00000C7C000003FC00000A5
S11300303DC000003BC0000039C0000037C00000D4
S113004035C0000033C0000031C000002FC00000E4
S11300502DC000002BC0000029C0000027C00000F4
S113006025C0000023C0000021C000001FC0000004
S11300701DC000001BC0000019C0000017C0000014
S113008015C0000013C0000011C0000011241FBEE1
S1130090CFEFD0E1DEBFCDBF21E0A0E0B1E001C0F1
S11300A01D92A330B207E1F7B4D0DCC0A9CFAB9A5C
S11300B08FEC97E00197F1F700C00000AB988FEC4C
S11300C097E00197F1F700C000000895CF938FEFF8
S11300D084BB15BAC0E2C5BBEADFC5BBE8DF80E874
S11300E085BBE5DF15BAE3DF80EF85BBE0DF15BA3A
S11300F0DEDF80E685BBDBDFCF910895CF93C82F89
S113010085BBAA9AD4DFC295C07FC5BBAA9ACFDFAC
S113011080910001909101010196909301018093D7
S11301200001CF910895CF93C82F85BBAA98BFDF54
S1130130C295C07FC5BBAA98BADFCF910895CF936B
S1130140DF9320910001309101012817390731F123
S1130150EC018217930784F480E1E5DF209100012C
S113016030910101215031093093010120930001A4
S1130170C217D3078CF312C0281739077CF484E123
S1130180D2DF20910001309101012F5F3F4F309366
S11301900101209300012C173D078CF3DF91CF91CF
S11301A0089582E091E0089587B7806487BF8FEF58
S11301B084BD87E085BD08951F920F920FB60F92FC
S11301C011248F938FEF84BD809102018F5F809300
S11301D002018F910F900FBE0F901F9018951F92E0
S11301E00F920FB60F9211248F9383B5853729F49C
S11301F083EC83BD80E882BB06C083B5833C19F4DD
S113020085E783BD12BA8F910F900FBE0F901F9098
S113021018955CDF2FEF83ED90E3215080409040F0
S1130220E1F700C0000080E07EDF81E07CDFEFE3E7
S1130230FCE93197F1F700C00000B6DF7894B1DF34
S1130240FC0180818F70805D59DF80E090E077DF72
S1130250FFEF29E688E1F15020408040E1F700C03B
S10B02600000EDCFF894FFCF7C
S9030000FC
