S00B00006C63642E73726563E6
S113000045C0000053C0000051C000004FC00000B4
S11300104DC000004BC0000049C0000047C00000B4
S113002045C0000060C0000042C000003FC00000A6
S11300303DC000003BC0000039C0000037C00000D4
S113004035C0000033C0000031C000002FC00000E4
S11300502DC000002BC0000029C0000027C00000F4
S113006025C0000023C0000021C000001FC0000004
S11300701DC000001BC0000019C0000017C0000014
S113008015C0000013C0000011C0000011241FBEE1
S1130090CFEFD0E1DEBFCDBF21E0A0E0B1E001C0F1
S11300A01D92A130B207E1F738D03DC0A9CF1F920D
S11300B00F920FB60F9211248F938FEF84BD80910E
S11300C000018F5F809300018F910F900FBE0F90FE
S11300D01F90189587B78FEF87BF14BC85E783BD42
S11300E08DE185BD08951F920F920FB60F921124D2
S11300F08F9383B5853729F483EC83BD80E885BB72
S113010006C083B5833C19F485E783BD15BA8F9186
S11301100F900FBE0F901F9018958FEF84BB11BAEC
S10D0120D9DF7894FFCFF894FFCFE5
S9030000FC
