:1000000045C0000060C000005EC000005CC0000091
:100010005AC0000058C0000056C0000054C0000084
:1000200052C0000050C000004EC000004CC0000094
:100030004AC0000048C0000046C0000044C00000A4
:1000400042C0000040C000003EC000003CC00000B4
:100050003AC0000038C0000036C0000034C00000C4
:1000600032C0000030C000002EC000002CC00000D4
:100070002AC0000028C0000026C0000024C00000E4
:1000800022C0000020C000001EC0000011241FBEBE
:10009000CFEFD0E1DEBFCDBF11E0A0E0B1E0E2E301
:1000A000F2E000E00BBF02C007900D92AC30B10748
:1000B000D9F721E0ACE0B1E001C01D92AE30B2074B
:1000C000E1F791D0B4C09CCFAB9A8FEC97E0019749
:1000D000F1F700C00000AB988FEC97E00197F1F7C3
:1000E00000C000000895CF938FEF84BB15BAC0E223
:1000F000C5BBEADFC5BBE8DF80E885BBE5DF15BA35
:10010000E3DF80EF85BBE0DF15BADEDF80E685BB8D
:10011000DBDFCF910895CF93C82F85BBAA9AD4DF98
:10012000C295C07FC5BBAA9ACFDFCF910895CF9368
:10013000C82F85BBAA98C8DFC295C07FC5BBAA9847
:10014000C3DFCF910895CF93DF93EC0181E090E07E
:10015000EEDF82E090E0EBDF8881882379F0219662
:10016000DADF20910C0130910D012F5F3F4F30936A
:100170000D0120930C0189918111F2CFDF91CF9174
:100180000895CF93DF9320910C0130910D01281732
:10019000390731F1EC018217930784F480E1C7DF5E
:1001A00020910C0130910D012150310930930D0146
:1001B00020930C01C217D3078CF312C028173907FC
:1001C0007CF484E1B4DF20910C0130910D012F5FAC
:1001D0003F4F30930D0120930C012C173D078CF3FA
:1001E000DF91CF91089588EF81BB7DDF80E091E0C2
:1001F000AADF809B07C080910C0190910D010197AF
:10020000C0DF08C0829B06C080910C0190910D0157
:100210000196B7DF82B3805882BB2FE78AE196E070
:10022000215080409040E1F700C00000E2CFF894F8
:02023000FFCFFE
:0C0232004B616469722053656B657200BB
:00000001FF
