S00B00006C63642E73726563E6
S113000045C0000060C000005EC000005CC000008D
S11300105AC0000058C0000056C0000054C0000080
S113002052C0000050C00000A7C000004CC0000037
S11300304AC0000048C0000046C0000044C00000A0
S113004042C0000040C000003EC000003CC00000B0
S11300503AC0000038C0000036C0000034C00000C0
S113006032C0000030C000002EC000002CC00000D0
S11300702AC0000028C0000026C0000024C00000E0
S113008022C0000020C000001EC0000011241FBEBA
S1130090CFEFD0E1DEBFCDBF11E0A0E0B1E0E0E200
S11300A0F2E000E00BBF02C007900D92A230B1074E
S11300B0D9F721E0A2E0B1E001C01D92A430B2075B
S11300C0E1F773D0ABC09CCFAB9A8FEC97E001976C
S11300D0F1F700C00000AB988FEC97E00197F1F7BF
S11300E000C000000895CF938FEF84BB15BAC0E21F
S11300F0C5BBEADFC5BBE8DF80E885BBE5DF15BA31
S1130100E3DF80EF85BBE0DF15BADEDF80E685BB89
S1130110DBDFCF910895CF93C82F85BBAA9AD4DF94
S1130120C295C07FC5BBAA9ACFDFCF910895CF9364
S1130130DF93EC018881882329F02196ECDF8991F3
S11301408111FCCFDF91CF910895CF93C82F85BB48
S1130150AA98BADFC295C07FC5BBAA98B5DFCF9174
S11301600895C1CF089587B7806487BF78948FEFCF
S113017084BD8FE185BD08951F920F920FB60F9233
S113018011248F939F938FEF84BD809102019091EE
S11301900301019690930301809302019F918F9133
S11301A00F900FBE0F901F901895DBDF80E0CDDF1E
S11301B08FE39CE90197F1F700C0000081E0C5DFFF
S11301C08FE39CE90197F1F700C0000080E091E023
S11301D0AEDF8FE39CE90197F1F700C0000074DF04
S11301E0C2DF80E090E0C0910201D09103018C173E
S11301F09D07E9F380E0A9DF81E0A7DF8091020198
S11302009091030194DF9FE728E381E0915020401F
S11302108040E1F700C00000CE01E5CFF894FFCFA5
S10502203000A8
S9030000FC
