S014000041737369676E6D656E7443312E7372656383
S113000072C0000078C0000076C0000074C0000018
S113001072C0000070C000006EC000006CC0000020
S11300206AC0000068C0000066C0000064C0000030
S113003062C0000060C000005EC000005CC0000040
S11300405AC0000058C0000056C0000054C0000050
S113005052C0000050C000004EC000004CC0000060
S11300604AC0000048C0000046C0000044C0000070
S113007042C0000040C000003EC000003CC0000080
S11300803AC0000038C0000036C00000080000007C
S1130090BE922449123EABAAAA2ABECDCCCC4C3E79
S11300A000000080BEABAAAAAA3E00000000BF0068
S11300B00000803F0000000000084178D3BB438764
S11300C0D1133D190E3CC3BD4282AD2B3E68EC8278
S11300D076BED98FE1A93E4C80EFFFBE01C4FF7FFD
S11300E03F000000000011241FBECFEFD0E1DEBFAF
S11300F0CDBFCDD05BC384CF181619066CF420E0B5
S113010030E0EFECF7E03197F1F700C000002F5F2B
S11301103F4F28173907A9F708958FEF87BBBB987E
S1130120C09A82E58DB908958FB9779BFECF089563
S113013098B321E030E002C0220F331F8A95E2F722
S11301402095292328BB089598B321E030E002C00C
S1130150220F331F8A95E2F7292B28BB089580E0EC
S1130160E7DF89E0E1DF8FEFDFDF80E0EDDF80E0D4
S1130170DFDF8AE0D9DF8FE0D7DF80E0E5DF80E0F2
S1130180D7DF8BE0D1DF83E0CFDF80E0DDDF80E00D
S1130190CFDF8CE0C9DF81E0C7DF80E0D5CF0895F1
S11301A0CF93DF93D82FC62F80E0C2DF8D2FBCDF23
S11301B08C2FBADF80E0C8DFDF91CF9108958F9252
S11301C09F92AF92BF92CF92DF92EF92FF920F93E2
S11301D01F93CF93DF93EC01BC01992324F466278A
S11301E07727681B790B062F172F072E000C880B17
S11301F0990B03D1E1D13CD120E030E040E85FE34A
S113020065D0C8D0962EE62EF72E85E0E816F104C8
S11302108CF58D2E881C8824881C31F084E0E81627
S1130220F10444F5C02FD12F01E010E00F2EFAE0C5
S1130230AF2EB12CF02DCE01B50191D2C62ED72E02
S1130240E016F10624F46FE0802FAADF06C0CE0189
S1130250B50185D2682F802FA3DF0F5F1F4FCC2DF0
S1130260DD2D0530110539F7882021F06AE081E0A1
S1130270890D96DFDF91CF911F910F91FF90EF9041
S1130280DF90CF90BF90AF909F908F900895CF93C1
S113029081E087BB42DF63DFC1E080E049DF8C2F70
S11302A043DF80E041DF80E04FDFCF5FC530A9F757
S11302B088EE93E021DF8CE29EEF81DF88EE93E00D
S11302C01BDF81E090E0CF9108955058BB27AA2707
S11302D00ED021C112D130F017D120F031F49F3F5C
S11302E011F41EF407C10EF4E095E7FBD4C0E92F26
S11302F023D180F3BA17620773078407950718F0B0
S113030071F49EF552C10EF4E0950B2EBA2FA02D78
S11303100B01B90190010C01CA01A0011124FF27AE
S1130320591B99F0593F50F4503E68F11A16F040A9
S1130330A22F232F342F4427585FF3CF46953795A8
S11303402795A795F0405395C9F77EF41F16BA0B6D
S1130350620B730B840BBAF09150A1F0FF0FBB1F1B
S1130360661F771F881FC2F70EC0BA0F621F731F64
S1130370841F48F4879577956795B795F7959E3FC1
S113038008F0B3CF9395880F08F09927EE0F97954F
S11303908795089504D06894B11108C10895D4D004
S11303A088F09F5790F0B92F9927B751A0F0D1F05A
S11303B0660F771F881F991F1AF0BA95C9F712C0E4
S11303C0B13081F0F2D0B1E00895EFC0672F782FFB
S11303D08827B85F39F0B93FCCF386957795679550
S11303E0B395D9F73EF490958095709561957F4FBC
S11303F08F4F9F4F0895E89409C097FB3EF4909562
S11304008095709561957F4F8F4F9F4F9923A9F0E9
S1130410F92F96E9BB279395F69587957795679578
S1130420B795F111F8CFFAF4BB0F11F460FF1BC0BC
S11304306F5F7F4F8F4F9F4F16C0882311F096E94F
S113044011C0772321F09EE8872F762F05C06623FD
S113045071F096E8862F70E060E02AF09A95660FB6
S1130460771F881FDAF7880F9695879597F908956F
S113047085D080F09F3740F491110EF097C060E072
S113048070E080E89FEB089526F41B16611D711D32
S1130490811D07C021C097F99F6780E870E060E084
S11304A00895882371F4772321F09850872B762FB1
S11304B007C0662311F499270DC09051862B70E074
S11304C060E02AF09A95660F771F881FDAF7880F85
S11304D09695879597F908959F3F31F0915020F4B0
S11304E0879577956795B795880F911D969587950C
S11304F097F908959FEF80EC089500240A94161646
S1130500170618060906089500240A9412161306FD
S1130510140605060895092E0394000C11F488238B
S113052052F0BB0F40F4BF2B11F460FF04C06F5FA7
S11305307F4F8F4F9F4F089557FD9058440F551F7D
S113054059F05F3F71F04795880F97FB991F61F051
S11305509F3F79F087950895121613061406551FC8
S1130560F2CF4695F1DF08C0161617061806991F34
S1130570F1CF86957105610508940895E5DFA0F033
S1130580BEE7B91788F4BB279F3860F41616B11D6F
S1130590672F782F8827985FF7CF8695779567958B
S11305A0B11D93959639C8F30895E894BB2766273F
S11305B07727CB0197F908950AD029ED3BE54EED55
S11305C05EE345C00EF088CF95CF689464CFBCDF5E
S11305D0C8F39923D1F3C6F3DF93CF931F930F93FB
S11305E0FF92C92FDD2788232AF02197660F771FF2
S11305F0881FDAF720E030E040E85FEB9FE38839BA
S113060020F0803E30F021968F7760DEECE8F0E059
S113061003C05CDEE9EBF0E07DD08B01BE01EC01B0
S1130620FB2E6F5771097595771F880B990BE5DEC3
S113063028E132E741E35FE316D0AF2D9801AE0124
S1130640FF900F911F91CF91DF9151DE64CF0BD0BA
S113065062CF53DF28F058DF18F0952309F01BCF41
S113066049CF1124A3CF68DFA0F3959FD1F3950F51
S113067050E0551F629FF001729FBB27F00DB11D22
S1130680639FAA27F00DB11DAA1F649F6627B00DB2
S1130690A11D661F829F2227B00DA11D621F739F9B
S11306A0B00DA11D621F839FA00D611D221F749FA9
S11306B03327A00D611D231F849F600D211D822FF0
S11306C0762F6A2F11249F5750408AF0E1F0882337
S11306D04AF0EE0FFF1FBB1F661F771F881F915044
S11306E05040A9F79E3F510570F0D5CE5FCF5F3FD4
S11306F0ECF3983EDCF3869577956795B795F79577
S1130700E7959F5FC1F7FE2B880F911D96958795FE
S113071097F90895DF93CF931F930F93FF92EF926E
S1130720DF927B018C01689405C0DA2EEF019BDF18
S1130730FE01E894A5912591359145915591AEF32B
S1130740EF01D5DDFE019701A801DA9479F7DF9076
S1130750EF90FF900F911F91CF91DF91089597FB38
S1130760072E16F4009406D077FD08D00BD007FCB2
S113077005D03EF4909581959F4F089570956195AD
S11307807F4F0895AA1BBB1B51E107C0AA1FBB1FC3
S1130790A617B70710F0A61BB70B881F991F5A9509
S11307A0A9F780959095BC01CD010895F894FFCFE9
S9030000FC
